{
  "contractName": "reverse",
  "abi": [
    {
      "inputs": [],
      "stateMutability": "nonpayable",
      "type": "constructor"
    },
    {
      "inputs": [
        {
          "internalType": "int256",
          "name": "a",
          "type": "int256"
        }
      ],
      "name": "reverseDigits",
      "outputs": [],
      "stateMutability": "nonpayable",
      "type": "function"
    },
    {
      "inputs": [],
      "name": "getResult",
      "outputs": [
        {
          "internalType": "int256",
          "name": "",
          "type": "int256"
        }
      ],
      "stateMutability": "view",
      "type": "function",
      "constant": true
    }
  ],
  "bytecode": "0x608060405234801561001057600080fd5b5060008081905550610358806100276000396000f3fe608060405234801561001057600080fd5b50600436106100365760003560e01c80632894467d1461003b578063de29278914610057575b600080fd5b61005560048036038101906100509190610116565b610075565b005b61005f6100d2565b60405161006c9190610152565b60405180910390f35b600081905060005b60008213156100c6576000600a83610095919061019c565b905080600a836100a591906101fc565b6100af9190610274565b9150600a836100be91906102b8565b92505061007d565b80600081905550505050565b60008054905090565b600080fd5b6000819050919050565b6100f3816100e0565b81146100fe57600080fd5b50565b600081359050610110816100ea565b92915050565b60006020828403121561012c5761012b6100db565b5b600061013a84828501610101565b91505092915050565b61014c816100e0565b82525050565b60006020820190506101676000830184610143565b92915050565b7f4e487b7100000000000000000000000000000000000000000000000000000000600052601260045260246000fd5b60006101a7826100e0565b91506101b2836100e0565b9250826101c2576101c161016d565b5b828207905092915050565b7f4e487b7100000000000000000000000000000000000000000000000000000000600052601160045260246000fd5b6000610207826100e0565b9150610212836100e0565b9250828202610220816100e0565b91507f80000000000000000000000000000000000000000000000000000000000000008414600084121615610258576102576101cd565b5b828205841483151761026d5761026c6101cd565b5b5092915050565b600061027f826100e0565b915061028a836100e0565b9250828201905082811215600083121683821260008412151617156102b2576102b16101cd565b5b92915050565b60006102c3826100e0565b91506102ce836100e0565b9250826102de576102dd61016d565b5b600160000383147f800000000000000000000000000000000000000000000000000000000000000083141615610317576103166101cd565b5b82820590509291505056fea2646970667358221220a47c962479f54c5b8be99f73b9d01a792a39d2e0ab29561f2f1cf0054345f54664736f6c63430008130033",
  "immutableReferences": {},
  "source": "// SPDX-License-Identifier: MIT\npragma solidity >=0.4.22 <0.9.0;\n\ncontract reverse {\n    int rev;\n    constructor() {\n        rev = 0;\n    }\n\n    function reverseDigits(int a) public {\n        int temp = a;\n        int r = 0;\n        while (temp > 0) {\n            int lastDigit = temp % 10;\n            r = r * 10 + lastDigit;\n            temp /= 10;\n        }\n        rev = r;\n    }\n\n    function getResult() public view returns (int) {\n        return rev;\n    }\n}\n",
  "sourcePath": "C:\\Users\\shubh\\OneDrive\\Desktop\\SEP_LAB_Quiz\\contracts\\reverse.sol",
  "compiler": {
    "name": "solc",
    "version": "0.8.19+commit.7dd6d404.Emscripten.clang"
  },
  "schemaVersion": "3.4.16",
  "updatedAt": "2024-03-19T16:45:22.886Z",
  "networkType": "ethereum",
  "devdoc": {
    "kind": "dev",
    "methods": {},
    "version": 1
  },
  "userdoc": {
    "kind": "user",
    "methods": {},
    "version": 1
  }
}